:1001F900E4F508750901750A0E750B3812035C7F61
:10020900017E001202CA75A0FFE5A05401F509C3D9
:1002190064809481400C0508E508B4060FE4F508EC
:10022900800A1508E508B4FF03750805E50804FF09
:10023900E50BAE0AA807088006CEA2E713CE13D8AD
:0C024900F8F5907FF47E0112029980BA53
:06000300041000000000E3
:10000E007D027CEFEF1FAA0670011E4A6006DCFE21
:04001E00DDFC80F095
:0100220022BB
:1002CA00E4FCFDFB7A1B79B7F812003FE47BE07A85
:1002DA002EF9F8120255C3E49FF515E49EF514436E
:1002EA00890185158AE514F58CD28CD2A9D2AF2260
:09039200AF13AE12AD11AC102244
:040299008F828E833F
:10029D001203928F0F8E0E8D0D8C0C120392C3EFE5
:1002AD00950FFFEE950EFEED950DFDEC950CFCAB4F
:0C02BD0082AA83E4F9F8D312008E50DF0F
:0102C9002212
:03000B000202FAF4
:1002FA00C0E0C0D085158AE514F58CE5132401F514
:10030A0013E43512F512E43511F511E43510F51040
:05031A00D0D0D0E0325C
:10035C0075985075CAD975CCD975CBFF75CDFF750D
:07036C00C834D2ACD2AF226D
:0300230002037362
:10037300309805C298859916309904C299C2003203
:0603830014F9120026FF30
:090389002000FDEFD200F59922DD
:10031F008B178A188919AB17AA18A919120026600A
:0F032F000D0519E5197002051812038380E822E5
:10033E008B1A8A1B891CAF051DEF6011AB1A051CA9
:0E034E00E51CAA1B7002051B12038380E92226
:0300000002016D8D
:0C016D00787FE4F6D8FD7581200201B413
:10002600BB010689828A83E0225002E722BBFE02D8
:09003600E32289828A83E493220B
:10003F00E88FF0A4CC8BF0A42CFCE98EF0A42CFC60
:10004F008AF0EDA42CFCEA8EF0A4CDA8F08BF0A4DE
:10005F002DCC3825F0FDE98FF0A42CCD35F0FCEB3D
:10006F008EF0A4FEA9F0EB8FF0A4CFC5F02ECD3902
:0F007F00FEE43CFCEAA42DCE35F0FDE43CFC226F
:10025500C2D5E830E70FB2D5E4C39BFBE49AFAE4D4
:1002650099F9E498F8EC30E717B2D512028B120031
:10027500DBE4C39BFBE49AFAE499F9E498F880037C
:100285001200DB30D50DE4C39FFFE49EFEE49DFD27
:04029500E49CFC22C7
:10008E00EB9FF5F0EA9E42F0E99D42F0E89C45F0C8
:01009E00223F
:100179000201F9E493A3F8E493A34003F68001F2A2
:1001890008DFF48029E493A3F85407240CC8C33387
:10019900C4540F4420C8834004F456800146F6DF56
:1001A900E4800B0102040810204080900003E47EE3
:1001B900019360BCA3FF543F30E509541FFEE4934B
:1001C900A360010ECF54C025E060A840B8E493A312
:1001D900FAE493A3F8E493A3C8C582C8CAC583CA3D
:1001E900F0A3C8C582C8CAC583CADFE9DEE780BEF5
:0100090000F6
:10009F0075F008758200EF2FFFEE33FECD33CDCC18
:1000AF0033CCC58233C5829BED9AEC99E58298409B
:1000BF000CF582EE9BFEED9AFDEC99FC0FD5F0D678
:1000CF00E4CEFBE4CDFAE4CCF9A88222B800C1B9A2
:1000DF000059BA002DEC8BF084CFCECDFCE5F0CBE0
:1000EF00F97818EF2FFFEE33FEED33FDEC33FCEB19
:1000FF0033FB10D703994004EB99FB0FD8E5E4F9D4
:10010F00FA227818EF2FFFEE33FEED33FDEC33FCC0
:10011F00C933C910D7059BE99A4007EC9BFCE99AB4
:10012F00F90FD8E0E4C9FAE4CCFB2275F010EF2FF9
:10013F00FFEE33FEED33FDCC33CCC833C810D707F9
:10014F009BEC9AE899400AED9BFDEC9AFCE899F834
:0E015F000FD5F0DAE4CDFBE4CCFAE4C8F922C7
:00000001FF
