:1009A90073706565643A00202020202020202000F3
:1009B90072756E696E67210073746F7021007365BB
:1009C900743A0074696D656F7574210073657420DC
:1009D900636F6D706C657465210073657420636164
:1009E9006E63656C2100102040800708090C04051E
:0A09F900060D0102030E0A000B0FA9
:100C1E00011A010119000110000611050406020354
:0D0C2E000102170000021B0000021D000063
:09000E00051CE51C7002051B2213
:100ABA00051EE51E7002051DC374D29518FFE49544
:100ACA0017FEC3E51E9FE51D9E4018E4F51DF51EA1
:100ADA00E510B4010ED3E5189400E517940040031D
:040AEA00120BAA221F
:1007B000E4F522F523120CD87F017E00120B1F7F77
:1007C000057E00120B4F120CBD75B00F7BFF7A092E
:1007D00079A97D01E4FF120A47D3E5239400E522BD
:1007E0006480948040047F0080027F018F1AD3E5EB
:1007F000239400E522648094804006AE22AF2380DB
:1008000009C3E49523FFE49522FE8E178F18AB23CE
:10081000AA227D017F06120B7FE5107BFF7A097902
:10082000B0B4010EE4FDFF120A477BFF7A0979B9E3
:10083000800CE4FDFF120A477BFF7A0979C1E4FDD1
:10084000FF120A4712093DEF640B7047120BF87B49
:10085000FF7A0979C77D01E4FF120A47E4FBFA7DBC
:10086000017F06120B7F7B007A0079221206657FDA
:10087000E87E03120AEE120BF87BFF7A0979A97D54
:1008800001E4FF120A47AB23AA227D017F06120B67
:100890007F801412093DBF0C0575100180091209F3
:1008A0003DBF0D03E4F5107F327E00120AEE020711
:0108B000D96E
:10093D007530FF78317C007D007BFF7A0979EF7E81
:10094D00007F0412045278357C007D007BFF7A090C
:10095D0079F37E007F1012045275B00FE5B0640F6D
:10096D006037E4FD74312DF8E6F4F5B0E4FC740164
:10097D007E00A804088005C333CE33CED8F9FFAB73
:10098D00B0EF5B700CEC25E025E02D2435F8E6FF8B
:0B099D00220CBC04D90DBD04CBAF3010
:0109A800222C
:100BAA00E51AB4010C0519E519B4060FE4F5198024
:100BBA000A1519E519B4FF037519055390F874114C
:070BCA002519F8E642902214
:060665008B248A25892682
:10066B007527FFE4F528F529F52A752B01F52CF5EF
:10067B002DF52EF52FE528600302079312093D8F08
:10068B0027E527F4600E12093D8F277F057E0012A8
:10069B000AEE80EDE4F52CF52DE527F4702F120909
:1006AB003D8F277F057E00120AEE052DE52D70028A
:1006BB00052CD394E8E52C940340DE120BF87BFF5A
:1006CB007A0979CCE4FDFF120A477F0022C3E527A4
:1006DB006480948A503CC3E529648094835033AE84
:1006EB002EAF2F7C007D0A1204918E2E8F2FAF27F9
:1006FB00EF3395E0FEEF252FF52FEE352EF52ED3AC
:10070B00E52F94C8E52E94004006752E00752FC872
:10071B000529E527B40E03752BFFE527B40F0375E9
:10072B002B01E52BFD3395E0FCAE2EAF2F12049180
:10073B00AA06AB077D017F06120B7FE527B40A06DD
:10074B00752801E4F52AE527B40B20AF2BEF339581
:10075B00E0FEAC2EAD2F120491AB24AA25A926EEF8
:10076B008FF01204A3752801752A01E527F4600E9A
:10077B0012093D8F277F057E00120AEE80ED7F0563
:10078B007E00120AEE020680120BF8E52A7BFFB4FC
:10079B0001067A0979D580047A0979E3E4FDFF1221
:0407AB000A47AF2A20
:0107AF002227
:060C3B0004560000000059
:100D06007D027CEFEF1FAA0670011E4A6006DCFE1C
:040D1600DDFC80F090
:010D1A0022B6
:100B1F00E4FCFDFB7A1B79B7F81204C2E47BE07AA0
:100B2F002EF9F8120A03C3E49FF55BE49EF55A43CE
:100B3F008901855B8AE55AF58CD28CD2A9D2AF2276
:090D5C00AF59AE58AD57AC562258
:040AEE008F828E83E2
:100AF200120D5C8F338E328D318C30120D5CC3EF50
:100B02009533FFEE9532FEED9531FDEC9530FCAB61
:0C0B120082AA83E4F9F8D312051150DF29
:010B1E0022B4
:03000B00020A8363
:100A8300C0E0C0F0C083C082C0D075D008855B8A47
:100A9300E55AF58CE5592401F559E43558F558E440
:100AA3003557F557E43556F55612000ED0D0D0829F
:070AB300D083D0F0D0E03247
:100B4F00E4FCFDFB7A1B79B7F81204C2E47BE07A70
:100B5F002EF9F8120A03C3E49FF55DE49EF55C439A
:100B6F008910855D8BE55CF58DD28ED2ABD2AF222D
:03001B00020C4292
:100C4200C0E0C0F0C083C082C0D075D008855D8B83
:100C5200E55CF58D120ABAD0D0D082D083D0F0D024
:020C6200E0327E
:100CD80075985075CAD975CCD975CBFF75CDFF7588
:070CE800C834D2ACD2AF22E8
:03002300020D3D8E
:100D3D00309805C29885995E309904C299C20932DE
:060D4D0014F9120478FF06
:090D53002009FDEFD209F59922F7
:100C64008B5F8A608961AB5FAA60A96112047860B6
:0F0C74000D0561E56170020560120D4D80E822EB
:100C83008B628A638964AF051DEF6011AB620564F3
:0E0C9300E564AA6370020563120D4D80E9222C
:0300030025640071
:020CA1008B477F
:100CA300EFBD01042480800224C0F549E433F548F4
:0A0CB300AF49120D1BAF47020D2CD4
:100CBD007F38120D1B7F0C120D1B7F06120D1B7F33
:0B0CCD0001120D1B7F647E00020CEF83
:100D1B008F80C2A0C2A1D2A2C2A27F017E00020C10
:010D2B00EFD8
:100D2C008F80D2A0C2A1D2A2C2A27F017E00020CEF
:010D3C00EFC7
:100CEF00D3EF9400EE9400400DE4FD0DBD02FCEF38
:060CFF001F70ED1E80EAEB
:010D050022CB
:100A47008F428D438B448A458946AB44AA45A946C4
:100A5700120478FB601DE542C394105016AD43AFF6
:100A670042120CA1054274012546F546E43545F5C9
:0C0A77004580D7E4FBAD43AF42020CA168
:080B7F008F308D31AF03AE028F
:100B87007545FF7546007547038E488F497B007A88
:100B97000079321200827B007A007932AD31AF30B2
:030BA700020A47F8
:100BF800E4F531E4F530E4FBAD31AF30120CA1057A
:100C080030C3E5306480949040EC0531C3E531642D
:050C180080948240DE23
:010C1D0022B4
:030000000208B142
:0C08B100787FE4F6D8FD7581640208F839
:10038200E709F608DFFA8046E709F208DFFA803E5D
:1003920088828C83E709F0A3DFFA8032E309F6084A
:1003A200DFFA8078E309F208DFFA807088828C83B2
:1003B200E309F0A3DFFA806489828A83E0A3F60866
:1003C200DFFA805889828A83E0A3F208DFFA804C40
:1003D20080D280FA80C680D4806980F28033801017
:1003E20080A680EA809A80A880DA80E280CA803380
:1003F20089828A83ECFAE493A3C8C582C8CCC583F8
:10040200CCF0A3C8C582C8CCC583CCDFE9DEE780C7
:100412000D89828A83E493A3F608DFF9ECFAA9F046
:10042200EDFB2289828A83ECFAE0A3C8C582C8CC9C
:10043200C583CCF0A3C8C582C8CCC583CCDFEADEB5
:10044200E880DB89828A83E493A3F208DFF980CC17
:1004520088F0EF60010E4E60C388F0ED2402B40410
:100462000050B9F582EB2402B4040050AF232345B7
:0604720082239003D27307
:10047800BB010689828A83E0225002E722BBFE0282
:09048800E32289828A83E49322B5
:10049100EF8DF0A4A8F0CF8CF0A428CE8DF0A42E7F
:0204A100FE2239
:1004A300BB010A89828A83F0E5F0A3F0225006F7A4
:0F04B30009A7F01922BBFE06F3E5F009F31922A1
:1004C200E88FF0A4CC8BF0A42CFCE98EF0A42CFCD9
:1004D2008AF0EDA42CFCEA8EF0A4CDA8F08BF0A457
:1004E2002DCC3825F0FDE98FF0A42CCD35F0FCEBB6
:1004F2008EF0A4FEA9F0EB8FF0A4CFC5F02ECD397B
:0F050200FEE43CFCEAA42DCE35F0FDE43CFC22E7
:100A0300C2D5E830E70FB2D5E4C39BFBE49AFAE41E
:100A130099F9E498F8EC30E717B2D5120A391205C0
:100A23009DE4C39BFBE49AFAE499F9E498F8800304
:100A330012059D30D50DE4C39FFFE49EFEE49DFDAA
:040A4300E49CFC2211
:10051100EB9FF5F0EA9E42F0E99D42F0E89C45F040
:0105210022B7
:10002600E5512445F8E60551227842300702784525
:10003600E475F00112062F0204782000EB7F2ED221
:10004600008018EF540F2490D43440D4FF30040BB2
:10005600EF24BFB41A0050032461FFE55260021575
:10006600520555E5557002055430070D7842E47582
:10007600F00112062FEF02054F020BD17403D207CF
:100086008003E4C207F5518B428A438944E4F55262
:10009600F554F555E55260077F2012006180F5752D
:1000A60053FFC201C200C202C203C205C206C20891
:1000B60012002FFF700D3007057F00120072AF553A
:1000C600AE5422B4255FC2D5C20412002FFF24D03D
:1000D600B40A00501A75F00A785230D50508B6FFF2
:1000E6000106C6A426F620D5047002D20380D924C0
:1000F600CFB41A00EF5004C2E5D204020272D20154
:1001060080C6D20080C0D20280BCD2D580BAD205C9
:1001160080B47F201200612002077401B5520040AE
:10012600F1120026FF12006102009AD208D2068060
:1001360095120026FB120026FA120026F94A4B7089
:100146000679437A037BFF20022EE552602A7E0061
:100156008E8275830012052260060EEE655370F0DE
:10016600C2D5EBC0E0EAC0E0E9C0E0EE1202B9D0C9
:10017600E0F9D0E0FAD0E0FB120478FF60AAEBC009
:10018600E0EAC0E0E9C0E0120061D0E02401F9D065
:10019600E03400FAD0E0FBE5530460DCD553D980A7
:1001A600877BFF7A0279B5D202809C79108002792A
:1001B60008C206C2088008D2D5790A8004790AC224
:1001C600D5E553047002F553E4FAFDFEFF1200264E
:1001D600FC7B08200113120026FD7B1030000A125A
:1001E6000026FE120026FF7B20EC3382D592D550E6
:1001F60013C3E43000069FFFE49EFEE42001039D46
:10020600FDE49CFCE4CBF8C201EC700CCFCECDCC67
:10021600E824F8F870F38017C3EF33FFEE33FEEDF2
:1002260033FDEC33FCEB33FB994002FB0FD8E9EBD3
:10023600300105F8D0E0C448B201C0E00AEC4D4EEA
:100246004F78207B0070C2EAB5530040BCC0E01274
:1002560002BBD0F0D0E0200104C4C0E0C4B201C0AB
:10026600F012004AD0F0D5F0EB02009A12063F01D8
:10027600375301B15801084C01044201B54F01BD85
:0F0286004401BD49011D4301C35501A74601A70E
:100295004501A747036350010C2D01102E01332B97
:1002A500011423013120034C2A00CC480000012B06
:1002B5003F3F3F00790AA2D5200314300509B91044
:1002C500020404B9080104A2D52006025001042045
:1002D50002689202B552005034C0E07F2030031905
:1002E5007F30A20272067205500F120312C202C2BB
:1002F50006C205C2087F30800F300503E9C0E01251
:100305000061300503D0E0F9D0E0B552CC300517D7
:100315007F30B9100C1200617F583004077F788058
:1003250003B908031200613002057F2D0200617FC9
:10033500202008F87F2B2006F322920280CF286E1A
:10034500756C6C2900D2011200263001F8C20178C3
:100355005230D50108F60200CC2D50434958120001
:10036500262403B405004001E490035E9312005275
:0D037500743A120052D2037552040201B115
:1008BD000207B0E493A3F8E493A34003F68001F29A
:1008CD0008DFF48029E493A3F85407240CC8C3333C
:1008DD00C4540F4420C8834004F456800146F6DF0B
:1008ED00E4800B0102040810204080900C1EE47E71
:1008FD00019360BCA3FF543F30E509541FFEE49300
:10090D00A360010ECF54C025E060A840B8E493A3C6
:10091D00FAE493A3F8E493A3C8C582C8CAC583CAF1
:10092D00F0A3C8C582C8CAC583CADFE9DEE780BEA9
:010C410000B2
:10052200BB010CE58229F582E5833AF583E022508E
:1005320006E92582F8E622BBFE06E92582F8E222D8
:0D054200E58229F582E5833AF583E49322F2
:10054F00BB010689828A83F0225002F722BBFE018B
:02055F00F32285
:1005610075F008758200EF2FFFEE33FECD33CDCC51
:1005710033CCC58233C5829BED9AEC99E5829840D4
:100581000CF582EE9BFEED9AFDEC99FC0FD5F0D6B1
:10059100E4CEFBE4CDFAE4CCF9A88222B800C1B9DB
:1005A1000059BA002DEC8BF084CFCECDFCE5F0CB19
:1005B100F97818EF2FFFEE33FEED33FDEC33FCEB52
:1005C10033FB10D703994004EB99FB0FD8E5E4F90D
:1005D100FA227818EF2FFFEE33FEED33FDEC33FCFA
:1005E100C933C910D7059BE99A4007EC9BFCE99AEE
:1005F100F90FD8E0E4C9FAE4CCFB2275F010EF2F33
:10060100FFEE33FEED33FDCC33CCC833C810D70732
:100611009BEC9AE899400AED9BFDEC9AFCE899F86D
:0E0621000FD5F0DAE4CDFBE4CCFAE4C8F92200
:10062F00FAE6FB0808E6F925F0F618E6CA3AF622CC
:10063F00D083D082F8E4937012740193700DA3A34A
:10064F0093F8740193F5828883E47374029368605E
:06065F00EFA3A3A380DF5E
:100BD100EFB40A07740D120BDC740A309811A8994E
:100BE100B8130CC2983098FDA899C298B811F63084
:070BF10099FDC299F599225C
:00000001FF
