:020ADA008B1976
:100ADC00EFBD01042480800224C0F51BE433F51A19
:0A0AEC00AF1B120B69AF19020B7A61
:100AF6007F38120B697F0C120B697F06120B697F18
:0B0B060001120B697F647E00020B11DE
:100B69008F80C2A0C2A1D2A2C2A27F017E00020BC5
:010B7900116A
:100B7A008F80D2A0C2A1D2A2C2A27F017E00020BA4
:010B8A001159
:100B1100D3EF9400EE9400400DE4FD0DBD02FCEF17
:060B21001F70ED1E80EACA
:010B270022AB
:100B3F00120AF67B737D01E4FF120ADA7FE87E0367
:050B4F00120B1180EE05
:060BB30004080000000030
:100B54007D027CEFEF1FAA0670011E4A6006DCFED0
:040B6400DDFC80F044
:010B6800226A
:100A4800E4FCFDFB7A1B79B7F8120819E47BE07A1D
:100A58002EF9F81209D3C3E49FF50DE49EF50C4373
:100A68008901850D8AE50CF58CD28CD2A9D2AF22EA
:090BAA00AF0BAE0AAD09AC082244
:040A17008F828E83B9
:100A1B00120BAA8F128E118D108C0F120BAAC3EF13
:100A2B009512FFEE9511FEED9510FDEC950FFCABBD
:0C0A3B0082AA83E4F9F8D312086850DFA7
:010A4700228C
:03000B00020A786E
:100A7800C0E0C0D0850D8AE50CF58CE50B2401F5A6
:100A88000BE4350AF50AE43509F509E43508F508F3
:050A9800D0D0D0E032D7
:100B280075985075CAD975CCD975CBFF75CDFF7539
:070B3800C834D2ACD2AF2299
:03002300020B8B42
:100B8B00309805C29885990E309904C299C20032EB
:060B9B0014F9120800FF2E
:090BA1002000FDEFD200F59922BD
:100A9D008B138A148915AB13AA14A91512080060BB
:0F0AAD000D0515E51570020514120B9B80E8224C
:100ABC008B168A178918AF051DEF6011AB16051838
:0E0ACC00E518AA1770020517120B9B80E9228D
:03000000020947AB
:0C094700787FE4F6D8FD75812002098E4F
:10080000BB010689828A83E0225002E722BBFE02F6
:09081000E32289828A83E4932229
:10081900E88FF0A4CC8BF0A42CFCE98EF0A42CFC7E
:100829008AF0EDA42CFCEA8EF0A4CDA8F08BF0A4FC
:100839002DCC3825F0FDE98FF0A42CCD35F0FCEB5B
:100849008EF0A4FEA9F0EB8FF0A4CFC5F02ECD3920
:0F085900FEE43CFCEAA42DCE35F0FDE43CFC228D
:1009D300C2D5E830E70FB2D5E4C39BFBE49AFAE44F
:1009E30099F9E498F8EC30E717B2D5120A0912081E
:1009F300B5E4C39BFBE49AFAE499F9E498F880031D
:100A03001208B530D50DE4C39FFFE49EFEE49DFDBF
:040A1300E49CFC2241
:10086800EB9FF5F0EA9E42F0E99D42F0E89C45F0E6
:01087800225D
:10095300020B3FE493A3F8E493A34003F68001F270
:1009630008DFF48029E493A3F85407240CC8C333A5
:10097300C4540F4420C8834004F456800146F6DF74
:10098300E4800B0102040810204080900BB3E47E46
:10099300019360BCA3FF543F30E509541FFEE49369
:1009A300A360010ECF54C025E060A840B8E493A330
:1009B300FAE493A3F8E493A3C8C582C8CAC583CA5B
:1009C300F0A3C8C582C8CAC583CADFE9DEE780BE13
:010BB900003B
:1008790075F008758200EF2FFFEE33FECD33CDCC36
:1008890033CCC58233C5829BED9AEC99E5829840B9
:100899000CF582EE9BFEED9AFDEC99FC0FD5F0D696
:1008A900E4CEFBE4CDFAE4CCF9A88222B800C1B9C0
:1008B9000059BA002DEC8BF084CFCECDFCE5F0CBFE
:1008C900F97818EF2FFFEE33FEED33FDEC33FCEB37
:1008D90033FB10D703994004EB99FB0FD8E5E4F9F2
:1008E900FA227818EF2FFFEE33FEED33FDEC33FCDF
:1008F900C933C910D7059BE99A4007EC9BFCE99AD3
:10090900F90FD8E0E4C9FAE4CCFB2275F010EF2F17
:10091900FFEE33FEED33FDCC33CCC833C810D70717
:100929009BEC9AE899400AED9BFDEC9AFCE899F852
:0E0939000FD5F0DAE4CDFBE4CCFAE4C8F922E5
:00000001FF
